:020000040800F2
:10000000380D002099010008310B00084D0A000846
:10001000510A000851060008D3160008000000002D
:10002000000000000000000000000000AD0D00080E
:100030002D09000800000000B90B0008C10E0008DF
:10004000B3010008B3010008B3010008B3010008C0
:10005000B3010008B3010008B3010008B3010008B0
:10006000B3010008B3010008B3010008B3010008A0
:10007000B3010008B3010008B3010008B301000890
:10008000B3010008B3010008B3010008B301000880
:10009000B3010008B3010008B3010008B301000870
:1000A000B3010008B3010008B3010008B301000860
:1000B000B3010008A50F00085D100008B301000897
:1000C000B3010008B3010008B3010008B301000840
:1000D000B301000859120008E1120008A513000836
:1000E000B3010008B3010008B301000800F002F8F2
:1000F00000F042F80AA090E8000C82448344AAF180
:100100000107DA4501D100F037F8AFF2090EBAE87D
:100110000F0013F0010F18BFFB1A43F0010318473B
:10012000081F0000281F0000103A24BF78C878C1BB
:10013000FAD8520724BF30C830C144BF04680C60ED
:10014000704700000023002400250026103A28BF35
:1001500078C1FBD8520728BF30C148BF0B60704739
:10016000642900F06F80782900F0D3800020704768
:100170001FB51FBD10B510BD00F03AFA1146FFF7CC
:10018000F7FF01F041FB00F058FA03B4FFF7F2FF6C
:1001900003BC01F0A7FA000009488047094800475E
:1001A000FEE7FEE7FEE7FEE7FEE7FEE7FEE7FEE727
:1001B000FEE7FEE704480549054A064B7047000084
:1001C000C50E0008ED00000838070020380D00209B
:1001D0003809002038090020704700000FB4044996
:1001E00010B503AA029800F0EDF910BC5DF814FBFD
:1001F0002C00002070B5044685690068C10601D551
:10020000302600E02026C00707D070BDD4E90121C8
:1002100030469047206A401C20626D1EF6D570BDA6
:1002200070B5044685690078C00707D170BDD4E970
:10023000012120209047206A401C20626D1EF6D5C7
:1002400070BD00002DE9F0410646002410687529B4
:10025000314616A510D0AFF30080002802DA4042E4
:1002600013A507E031688A0701D512A502E0490706
:1002700004D511A5012401E0AFF3008000210A227A
:1002800006F1240709E0B0FBF2FCB0FBF2F302FB3D
:100290001C00303078541846491C0028F3D12346FE
:1002A0002A463046BDE8F04100F01AB900000000CF
:1002B0002D0000002B00000020000000F0B40D46CF
:1002C0000188090502D5214C7C4402E01F4C7C4486
:1002D0000E34002100F1240608E002F00F07120995
:1002E000E75D42EA03721B097754491C52EA03078F
:1002F000F3D102780023120704D5702D06D009B17E
:10030000022311342246F0BC00F0EAB80123103475
:10031000F8E770B504460D4621461068AFF300803B
:10032000024629462046BDE870400023C6E7D21D9C
:1003300022F00703D3E90023C0E70368126843F003
:10034000200303600823C3610023B7E7201D0000DA
:100350002DE9F05F894604464FF0000ADFF874B1DA
:10036000FB44C0F820A02046E1688847002874D0EC
:10037000252806D0D4E901219047206A401C20623C
:10038000F1E700265F462046E168884720280546B9
:1003900007DB312D05D2781910F8200C08B106437F
:1003A000F1E7B00701D526F00406C4F81CA0002729
:1003B000C4F818A02A2D09D0284601F08CF938B3CA
:1003C00004EB8708303DC8F8185019E059F8041BB1
:1003D000204604EB87029161E1688847012F0546BA
:1003E00018D1E069002820DA26F020061DE0D8F8B0
:1003F000180000EB800005EB40003038C8F818000A
:100400002046E1688847054601F065F90028EED1ED
:10041000012F0AD02E2D08D12046E16888477F1C85
:100420000546022F46F02006C4DBA069002803DA47
:10043000404246F00106A061F00701D026F0100608
:100440006C2D0BD0682D09D04C2D39D06A2D35D0AC
:10045000742D35D07A2D33D016E038E0E1682F4680
:1004600020468847B842054609D16C2F26D04FF464
:100470008060E168064320468847054604E06C2F0B
:100480001AD04FF4807006430DB3A5F1410019282E
:1004900002D8203546F400664A46294620462660A2
:1004A0004E46FFF75DFE80B101280BD0F61D26F009
:1004B000070000F1080956E74020E4E78020D8E76C
:1004C0000020D6E706F104094DE7284652E7206AE6
:1004D000BDE8F09FB01C0000704770477047704740
:1004E0002DE9F0470D4699469246044600F124084E
:1004F0000168880604D5E06921F01001216000E060
:100500000120A84201DD471B00E00027A1697A19FC
:1005100002EB0900081AA0612078C00602D4204628
:10052000FFF768FE002608E0D4E901211AF806006A
:100530009047206A401C761C20624E45F4DB2078F0
:10054000C0060AD52046FFF755FE06E0D4E9012192
:1005500030209047206A401C2062381EA7F1010716
:10056000F4DC07E0D4E9012118F805009047206A7F
:10057000401C2062281EA5F10105F3DC2046FFF790
:100580004FFE2078000602D50220BDE8F08701204A
:10059000FBE7000001694A1C02610878704700B55A
:1005A0008FB0CDE901310021059105497944CDE9AC
:1005B000031011466846FFF7CBFE0FB000BD0000E8
:1005C000E5FFFFFF074B70B50D467B44FFF7E7FFE4
:1005D0000446284600F008F810B14FF0FF3070BD17
:1005E000204670BD1F120000007B00F080007047A5
:1005F000754600F029F8AE4605006946534620F0DE
:100600000700854618B020B5FFF7D4FDBDE82040AF
:100610004FF000064FF000074FF000084FF0000BBE
:1006200021F00701AC46ACE8C009ACE8C009ACE871
:10063000C009ACE8C0098D4670470446AFF300809E
:100640002046FFF7A2FD000000487047D4060020B6
:1006500000BFFEE7F0B502460B460020FF24FF2551
:1006600009E012F8016B86EA05010A4E765C86EA1B
:100670000405094E745C1E00A3F10107BBB2F0D162
:100680004619B0B24FF6FF7606EA00200619B0B25E
:10069000F0BD0000EC1D0008EC1E000810B50024A1
:1006A0001548006820F0F00013490860084600680B
:1006B00040F08000086004E0601CC4B2012001F03A
:1006C0006FF80E48006808B1C82CF5DBC82C01DBB8
:1006D000012010BD002404E0601CC4B2012001F020
:1006E0005FF80648006808B9F02CF5DBF02C01DB58
:1006F0000120EEE70020ECE7040C014024812142B8
:100700002DE9F84F00F0CCF800F0A8F8FFF7C6FF8D
:10071000CC2000F0D1F8BE2000F0CEF800F08CF82C
:10072000834600F089F80446072C08DDE043C4B294
:100730006FEA0B0000F0FF0B4FF0000A01E04FF0F2
:10074000010AA1464FEA09200FFA80F909EB0B00D4
:100750000FFA80F9484601F0EBFA009001F0BCFA7C
:1007600007460022084B01F0B9F9054601F086F969
:100770000FFA80F9BAF1000F02D04846BDE8F88FB1
:10078000C9F1000000B2F9E70000E43F08B501211B
:10079000082000F033FA4FF40070ADF8000010208C
:1007A0008DF8030003208DF802006946064800F02A
:1007B000BEF84FF40071044800F046F900F04EF81E
:1007C000FFF76CFF08BD0000000C014010B5174892
:1007D000006820F0F000154908600846006840F005
:1007E00030000860002012490860022000F0D8FFA5
:1007F00001201049C1F8A4010C48006820F0F00065
:100800000A4908600846006840F0800008600C2033
:1008100000F0C6FF06488038006808B1012400E0F7
:100820000024322000F0BCFF204610BD040C014023
:10083000A48121420080214270B50026012508E0F4
:10084000FFF7C4FF0446E00140EA6600C6B2681C38
:10085000C5B2082DF4DD304670BD000010B50D485E
:10086000006820F0F0000B4908600846006840F07E
:100870003000086000200849086040F2EE2000F0D7
:100880008FFF01200549C1F8A4010F2000F088FF67
:1008900010BD0000040C0140A481214200802142CF
:1008A00010B5FFF7DBFFFFF7F9FECC2000F004F8EE
:1008B000442000F001F810BD70B5044618480068E7
:1008C00020F0F000164908600846006840F030004B
:1008D0000860012520E004F0010664106EB10020DC
:1008E00010490860022000F05BFF01200E49C1F8AA
:1008F000A4013C2000F054FF0CE0002009490860EE
:100900003C2000F04DFF01200749C1F8A40102205E
:1009100000F046FF681CC5B2082DDCDD70BD00008C
:10092000040C0140A48121420080214270472DE93E
:10093000F041024600250026002000230024002765
:1009400091F803C00CF00F0591F803C00CF0100CE7
:10095000BCF1000F03D091F802C04CEA050591F8F4
:1009600000C0BCF1000F31D0146800202BE04FF024
:10097000010C0CFA00F3B1F800C00CEA03069E4229
:1009800020D183004FF00F0C0CFA03F7BC4305FA9B
:1009900003FC4CEA040491F803C0BCF1280F06D113
:1009A0004FF0010C0CFA00FCC2F814C00AE091F8F8
:1009B00003C0BCF1480F05D14FF0010C0CFA00FC4C
:1009C000C2F810C0401C0828D1D31460B1F800C090
:1009D000BCF1FF0F34DD546800202EE000F1080C5C
:1009E0004FF0010808FA0CF3B1F800C00CEA030656
:1009F0009E4221D183004FF00F0C0CFA03F7BC4349
:100A000005FA03FC4CEA040491F803C0BCF1280F7A
:100A100005D100F1080C08FA0CF8C2F8148091F81E
:100A200003C0BCF1480F07D100F1080C4FF00108DA
:100A300008FA0CF8C2F81080401C0828CED3546085
:100A4000BDE8F081416170470161704700BFFEE77A
:100A500000BFFEE770B501202949087003204870E7
:100A60000820887027480088000A27490870254810
:100A7000007826490870244800782149C870234826
:100A80000078087122480088000A2249087020482E
:100A90000078214908701F480078194948711E489C
:100AA000007888711D480088000A1D4908701B489D
:100AB00000781C4908701A4800781149C871194813
:100AC00000780872FFF71CFE0546280A16490870D0
:100AD00016490D7014480078094948721348007887
:100AE00088720B210648FFF7B5FD0446200A044929
:100AF000C8720C730D21024800F08CFC70BD000020
:100B00007C040020440000205400002055000020F8
:100B10004800002056000020570000204C00002014
:100B200058000020590000205A0000205B000020DF
:100B30007047000070B5002100230F22C47804B371
:100B4000154C246804F4E064C4F5E064210AC1F1A2
:100B50000403CA40447804FA03F184781440214322
:100B600009010E4C0678A155047804F01F050124F4
:100B7000AC4005786D11AD0005F1E025C5F80041E8
:100B800009E0047804F01F050124AC40044D067808
:100B9000761145F8264070BD0CED00E000E400E061
:100BA00080E100E002490143024A11607047000001
:100BB0000000FA050CED00E07047000029B1064A7C
:100BC000D2690243044BDA6104E0034AD2698243EA
:100BD000014BDA61704700000010024029B1064A5B
:100BE00012690243044B1A6104E0034A126982430A
:100BF000014B1A61704700000010024029B1064AFB
:100C000092690243044B9A6104E0034A9269824369
:100C1000014B9A61704700000010024029B1064A5A
:100C2000D2680243044BDA6004E0034AD26882438C
:100C3000014BDA60704700000010024030B500211F
:100C40000022002400232D4D6D6805F00C0121B118
:100C5000042905D0082923D105E0294D056022E0AB
:100C6000274D05601FE0254D6D6805F47012234D7A
:100C70006D6805F48034022505EB92421CB9214DC4
:100C8000554305600BE01D4D6D6805F400351DB141
:100C90001C4D5543056002E0194D5543056002E0C7
:100CA000174D056000BF00BF144D6D6805F0F001E1
:100CB0000909154D6B5C0568DD4045600F4D6D6899
:100CC00005F4E061090A104D6B5C4568DD40856004
:100CD0000A4D6D6805F46051C90A0B4D6B5C45689F
:100CE000DD40C560054D6D6805F44041890B074D39
:100CF0006B5CC568B5FBF3F5056130BD00100240C3
:100D000000127A0000093D00140000202400002099
:100D100070B52248008800F4004000283DD01F48EC
:100D20000088C0F30D041E4800781E4909788842E7
:100D300005D01B4800781C49097888422AD11848F8
:100D40004078042807D016484078032803D0144878
:100D5000407806281ED1A01E81B21148FFF77AFC08
:100D60000546601E0E49095CA01E0D4A105C41EA52
:100D70000026B5420ED110464078032805D004283D
:100D800002D0062805D103E003E0FFF763FE00E090
:100D900000BF00BF00200149088070BD5000002046
:100DA000240200205200002053000020704710B59C
:100DB00000F002F810BD00000CB50020019000907A
:100DC0003348006840F480303149086000BF304843
:100DD000006800F4003000900198401C01900098D9
:100DE00018B90198B0F5A06FF1D12948006800F456
:100DF000003010B10120009001E000200090009828
:100E0000012843D12348006840F0100021490860C0
:100E10000846006820F0030008600846006840F0BB
:100E2000020008601A48406819494860084640684E
:100E300048600846406840F4806048600846406862
:100E400020F47C1048600846406840F4E810486090
:100E50000846006840F08070086000BF0C480068D9
:100E600000F000700028F9D00948406820F0030025
:100E7000074948600846406840F00200486000BFEB
:100E80000348406800F00C000828F9D10CBD0000B0
:100E90000010024000200240042808D14FF0E02159
:100EA000096941F004014FF0E022116107E04FF0C1
:100EB000E021096921F004014FF0E022116170473F
:100EC0007047000010B51348006840F00100114958
:100ED000086008464068104908400E4948600846C6
:100EE00000680E4908400B4908600846006820F475
:100EF000802008600846406820F4FE0048604FF4F7
:100F00001F008860FFF753FF4FF00060044908603E
:100F100010BD0000001002400000FFF8FFFFF6FEC9
:100F200008ED00E01FB501210846FFF747FE01214B
:100F30000420FFF763FE0120ADF80C0028208DF897
:100F40000F0003A91648FFF7F2FC01211448FFF730
:100F500079FD4FF6FF70ADF804000020ADF80000F9
:100F6000ADF80600ADF8020069464FF0804000F091
:100F700021F970214FF0804000F004F900231A4657
:100F800019464FF0804000F0C2F800214FF0804039
:100F900000F00DF90121880700F0ADF81FBD000039
:100FA0000008014010B50121104800F0D1F8E0B16F
:100FB00001210E4800F09CF84FF0804000F0C5F889
:100FC0000B490860084600680321B0FBF1F00949AD
:100FD000086008460068C0EB001080000649086001
:100FE00000214FF0804000F0E2F810BD0004004006
:100FF00044000020480000204C0000207FB505463A
:101000000C4601210220FFF7D9FDADF80850ADF8DC
:1010100004400020ADF80A00ADF8060001A90E4812
:1010200000F0C8F8012211460B4800F0A2F81D207C
:101030008DF8000000208DF8010003208DF80200DB
:1010400001208DF803006846FFF774FD0121024876
:1010500000F051F87FBD00000004004010B50121F0
:10106000094800F075F868B10848008840F400406D
:10107000064908800121044800F03AF8002102489E
:1010800000F039F810BD00000008004050000020BA
:101090007FB505460C4601210420FFF78FFDADF812
:1010A0000450ADF800400020ADF80600ADF8020095
:1010B00069460E4800F07EF8012211460B4800F008
:1010C00058F80121094800F016F81E208DF80C0090
:1010D00000208DF80D0002208DF80E0001208DF803
:1010E0000F0003A8FFF726FD7FBD000000080040A9
:1010F000CA430282704721B1028842F00102028095
:1011000004E002884FF6FE731A4002807047F0B583
:1011100004460D4616461F463B46324629462046A3
:1011200000F005F8208940F480402081F0BD30B502
:101130000C4600210189C9B24FF6FF7505EA032567
:10114000154325432943018130BD0146888C7047F2
:1011500030B50246002000230024158A05EA010369
:10116000958905EA010413B10CB1012000E00020CB
:1011700030BD1AB183890B43838102E083898B439D
:101180008381704730B504460D462946204600F05D
:1011900005F8208940F00700208130BD0A46002173
:1011A00001894FF68F731940114301817047818483
:1011B00070470000002202881D4B98420ED01D4B44
:1011C00098420BD0B0F1804F08D01B4B984205D00D
:1011D0001A4B984202D01A4B984204D14FF68F73A3
:1011E0001A404B881A43174B984207D0164B984227
:1011F00004D04FF6FF431A40CB881A4302808B88F5
:1012000083850B8803850A4B98420BD0094B984283
:1012100008D00E4B984205D00D4B984202D00D4B92
:10122000984201D10B7A0386012383827047000024
:10123000002C014000340140000400400008004040
:10124000000C00400010004000140040004001402D
:10125000004401400048014010B540F225511D48AE
:1012600000F073F910B31B4800F02AFAC4B21A4810
:10127000008800F40040C8B91748008800F4804096
:1012800060B10A2C03D000201349088020E01248E6
:10129000008840F400401049088019E00D2C06D168
:1012A0000D48008840F480400B49088010E00A484F
:1012B0000088C0F30D0009490C5407480088401C01
:1012C0000549088008460088C72801DD00200880FD
:1012D00010BD000000380140300000205C000020FC
:1012E00010B540F22551284800F02FF998B140F28E
:1012F0002551254800F0B2F8234800F0E1F92349D0
:10130000234A1268885422480068401C204908601B
:101310000846007808601E480068401E1B49085CAB
:1013200028B91B480078401E1A4908702BE018485D
:101330000068401E17490978491C88420CD114489E
:101340000068401E1149085C0A2805D11048007841
:10135000401E1149087016E00D480068401E122812
:1013600011D11321094800F0BFF90C490860084861
:101370000068401E0549085C08490978884202D186
:1013800001200749088010BD0044004024010020CE
:10139000380000203C0000203D00002040000020DC
:1013A0003400002010B540F22551164800F0CDF869
:1013B000F8B1144800F084F9C4B21348008800F46E
:1013C0000040B0B910480088B0F5167F12DA00214D
:1013D0000E48FFF7ECFE0C48008818B901210B48B5
:1013E000FFF789FE08490888411C074A118008490F
:1013F0000C5405E00448008840F40040024908808D
:1014000010BD0000004800405000002000080040CF
:101410002402002070B505460E46002403E0285D36
:1014200000F004F8641CB442F9DB70BD10B504464A
:1014300000BF8021084800F07BF80128F9D121463F
:10144000054800F042F900BF4021034800F070F861
:101450000128F9D110BD00000048004010B500225D
:10146000002340F66A14A14200D100BF0A120124F1
:101470009440A3B2DC43048010BD21B1828942F4C0
:101480000052828104E082894DF6FF731A40828106
:101490007047000010B504462048844209D101215C
:1014A0008803FFF7BBFB00214FF48040FFF7B6FB3A
:1014B00032E01B48844209D101214804FFF78EFB2A
:1014C00000214FF40030FFF789FB25E015488442E6
:1014D00009D101218804FFF781FB00214FF480200E
:1014E000FFF77CFB18E01048844209D10121C804B1
:1014F000FFF774FB00214FF40020FFF76FFB0BE0B8
:101500000A48844208D101210805FFF767FB002142
:101510004FF48010FFF762FB10BD0000003801405F
:101520000044004000480040004C00400050004093
:1015300002460020B1F5007F00D100BF13880B40A8
:101540000BB1012000E00020704770B50246002476
:1015500000230025002040F66A16B14200D100BFEA
:10156000C1F3421501F01F03012606FA03F3012D12
:1015700002D19689334006E0022D02D1168A33400B
:1015800001E0968A33400C12012606FA04F416880C
:10159000344013B10CB1012000E0002070BDF0B563
:1015A0000346002400260025002040F66A17B942B1
:1015B00000D100BF1846C1F3421401F01F060127F5
:1015C00007FA06F5012C01D10C3004E0022C01D100
:1015D000103000E014301AB107682F43076002E0B2
:1015E0000768AF430760F0BD2DE9F04786B00546B8
:1015F0000E460024A24600BFA1460027B08900B1D4
:1016000000BF2F462C8A4CF6FF700440F08804433C
:101610002C82AC894EF6F3100440B088318908431F
:10162000718908430443AC81AC8A4FF6FF40044003
:10163000B0890443AC8201A8FFF700FB1F48874232
:1016400002D1DDF810A001E0DDF80CA0A88900F4BB
:10165000004040B10AEBCA0000EB0A1031684900B3
:10166000B0FBF1F807E00AEBCA0000EB0A103168A2
:101670008900B0FBF1F86420B8FBF0F00401200908
:10168000642101FB1089A88900F4004040B1322098
:1016900000EBC900B0FBF1F000F00700044308E0E4
:1016A000322000EB09106421B0FBF1F000F00F00D4
:1016B00004432C8106B0BDE8F087000000380140EB
:1016C00001468888C0F308007047C1F30802828091
:1016D000704700BFFEE730380A2801D2012070476A
:1016E0000020704700BF704710B502460B4600202F
:1016F0000021064C2468E11A02E0545C2044491C95
:10170000024C2468641E8C42F7D810BD38000020BB
:1017100010B56FF00400FFF7BFFB0A4800680A49E4
:10172000B0FBF1F0094908700846007800EB400171
:10173000C1EBC0104FF6FF7101EAC00004490880F8
:1017400010BD00000000002000127A0028000020D8
:101750002A0000200146114A12884A434FF0E02334
:101760005A6100229A611A46126942F001021A6116
:1017700000BF4FF0E022106900F001021AB100F43E
:101780008032002AF5D04FF0E022126922F00102E7
:101790004FF0E0231A6100229A6170472A0000206E
:1017A0000146114A12784A434FF0E0235A61002261
:1017B0009A611A46126942F001021A6100BF4FF0A5
:1017C000E022106900F001021AB100F48032002A10
:1017D000F5D04FF0E022126922F001024FF0E02331
:1017E0001A6100229A6170472800002000BF054A54
:1017F000128802F04002002AF9D0C2B2014B1B1D30
:101800001A80704700380140FFF782FF4FF4A06054
:10181000FFF7C8F94FF4E13000F078F84FF4E13009
:1018200000F0C4F841F61F4147F22F50FFF7E6FBE6
:10183000FFF778FB05E017A0FEF7D0FCC820FFF704
:1018400089FFFEF7A3FF0028F5D122E04FF47A705C
:10185000FFF780FFFEF754FF04461248016812A00C
:10186000FEF7BCFC1348016813A0FEF7B7FC16484E
:10187000016816A0FEF7B2FC214618A0FEF7AEFCE8
:1018800021461AA0FEF7AAFC1FA0FEF7A7FCFFF74F
:101890003FFADBE744533138423230204572726FF1
:1018A000720D0A0044000020434E543A256420B4CF
:1018B000CE0D0A0048000020C6B5C2CA3A256420F1
:1018C000487A0D0A000000004C000020D7AACBD9AE
:1018D0003A256420722F6D696E0D0A00CEC2B6C81B
:1018E0003A25642020430D0A00000000CEC2B6C88D
:1018F000CAAEC1F9BDF8D6C63A253032782020A14B
:10190000A3430D0A000000000D0A000010B586B0C8
:101910000446012144F20400FFF770F94FF400700F
:10192000ADF8140003208DF8160018208DF817006C
:1019300005A91C48FEF7FBFF4FF48060ADF81400CA
:1019400004208DF8170005A91648FEF7F0FF2520A2
:101950008DF8000003208DF801008DF802000120B1
:101960008DF803006846FFF7E5F801940020ADF814
:101970000800ADF80A00ADF80C00ADF810000C201E
:10198000ADF80E0001A90848FFF72EFE012240F233
:1019900025510548FFF703FE01210348FFF76DFDC0
:1019A00006B010BD000801400038014010B586B0F7
:1019B000044601210820FFF721F901218804FFF7DF
:1019C000FDF82A48FFF766FD4FF48060ADF810007F
:1019D00003208DF8120018208DF8130004A9244864
:1019E000FEF7A5FF4FF40060ADF8100004208DF85D
:1019F000130004A91E48FEF79AFF00940020ADF8DA
:101A00000400ADF80600ADF80800ADF80C000C209D
:101A1000ADF80A0069461548FFF7E6FD01211348B5
:101A2000FFF72BFD012240F225511048FFF7B7FDCB
:101A300027208DF8140002208DF8150003208DF862
:101A4000160001208DF8170005A8FFF773F841F67E
:101A50001F4140F2E730FFF71BFB002005490880DB
:101A600000210548FFF747FB06B010BD00480040C5
:101A7000000C014050000020000800404FEA4103E4
:101A80004FEA5353A3F58063D3F11E03C8BFD3F1CC
:101A9000210C0CDD4FF0004242EAC12242EA5052D2
:101AA00032FA03FC8CEAE17CACEBE1707047102B5E
:101AB000C4BF0020704703F5787CBCF1FF3F04D021
:101AC0006FF0004282EA2100704770B500F0B0F874
:101AD0004992248000207047F2E70000DFF848C1F7
:101AE00070B51CEA111E1EBF1CEA13159EEA0C0FEE
:101AF00095EA0C0F00F06F8081EA030423EA4C138F
:101B00004EEAD47E21EA4C1141F4801143F4801353
:101B1000AE44A1FB024CA0FB0365AEF17F7E3619FB
:101B200055EB0C05A1FB034C4CF10003A0FB021C80
:101B300016EB0C06654153F10003094218BF46F04D
:101B4000010613F4007F0BD14FEA03314FEA053051
:101B5000340341EA155140EA16506FF003020AE0DF
:101B60004FEAC3214FEAC520F40241EA555140EA49
:101B700056506FF0020202EB2E4201EB025585EA4D
:101B8000CE710AD05FEA440C18BF24F0004450F133
:101B9000000041F1000120EAD47040F2FE7C624571
:101BA00000D270BDA84214BF4FF080444FF04044B3
:101BB000002E08BF0024BEF1806FA8BFA1F1C04174
:101BC000BDE8704080F282804FF0000001F1C0411A
:101BD00001F0004170479EEA0C0F0CEA131518BF84
:101BE00095EA0C0F06D04FF0000081EA030E0EF0CC
:101BF000004170BD00F01CF88900013E00F007B8FC
:101C000000F009B84FEA430C5FEA5C5C08D081EA57
:101C1000030100F05BB84FEA410C5FEA5C5CF6D16F
:101C20004FF00000014970470000FF070000F87FF7
:101C30000EF1020E2EF0030E5EF8046B364205D450
:101C4000012A43EB030515F5001F12D8012841EBCB
:101C5000010C1CF5001F0CD80ED14FEAD17C15F5F4
:101C6000001F0CEB4C0C0CF1020C08BF4CEBD37CAE
:101C700004E04FF0080C01E04FEAD37C0CEB4C057C
:101C800026FA05F606F00706B6F1040C06D20EEBAE
:101C9000860CBDE870404CF0010C6047DFE80CF0AA
:101CA000090B02024FF000414FF00000A1F50021A6
:101CB00070BD19461046012851EB010418BFD4F538
:101CC000001484BF002001F0004170BD0808A0F599
:101CD00000114FEA3101704743004FEAD30C4FEA3D
:101CE0003C0C43401FBF40070CF1605113F0FE4F06
:101CF00070471CF0006F03D100200CF000417047CA
:101D00000CF0004343EA507010B540EACC0000F0FC
:101D100027F800BF000000924FEA0001FFF7D6BF8E
:101D20004FF000414FF00000A1F500217047000086
:101D300010F0004148BF4042B0FA80F310FA03F2BD
:101D4000C3F19D030BD051EAC35101EB122053069E
:101D500038BF704700F1010008BF20F00100704754
:101D60000EF1020E2EF0030E5EF8044B244204D452
:101D70004FEA4102B2F17F4F11D84FEA4003B3F16D
:101D80007F4F0CD80ED14FEAD07CB2F17F4F0CEBD5
:101D90004C0C0CF1020C08BF4CEBD17C04E04FF072
:101DA000080C01E04FEAD17C0CEB4C0324FA03F45D
:101DB00004F00704B4F1040C06D20EEB840CBDE869
:101DC00010404CF0010C6047DFE80CF007080202FD
:101DD0004FF00040A0F5800010BD0846420018BF3B
:101DE000D2F1807288BF00F0004010BD00C1814078
:101DF00001C0804101C0804100C1814001C08041DB
:101E000000C1814000C1814001C0804101C08041CA
:101E100000C1814000C1814001C0804100C18140BA
:101E200001C0804101C0804100C1814001C08041AA
:101E300000C1814000C1814001C0804100C181409A
:101E400001C0804101C0804100C1814000C181408A
:101E500001C0804101C0804100C1814001C080417A
:101E600000C1814000C1814001C0804101C080416A
:101E700000C1814000C1814001C0804100C181405A
:101E800001C0804101C0804100C1814000C181404A
:101E900001C0804101C0804100C1814001C080413A
:101EA00000C1814000C1814001C0804100C181402A
:101EB00001C0804101C0804100C1814001C080411A
:101EC00000C1814000C1814001C0804101C080410A
:101ED00000C1814000C1814001C0804100C18140FA
:101EE00001C0804101C0804100C1814000C0C101EA
:101EF000C30302C2C60607C705C5C404CC0C0DCD7A
:101F00000FCFCE0E0ACACB0BC90908C8D81819D9E9
:101F10001BDBDA1A1EDEDF1FDD1D1CDC14D4D51519
:101F2000D71716D6D21213D311D1D010F03031F109
:101F300033F3F23236F6F737F53534F43CFCFD3D39
:101F4000FF3F3EFEFA3A3BFB39F9F83828E8E92929
:101F5000EB2B2AEAEE2E2FEF2DEDEC2CE42425E5D9
:101F600027E7E62622E2E323E12120E0A06061A149
:101F700063A3A26266A6A767A56564A46CACAD6DF9
:101F8000AF6F6EAEAA6A6BAB69A9A86878B8B97969
:101F9000BB7B7ABABE7E7FBF7DBDBC7CB47475B599
:101FA00077B7B67672B2B373B17170B05090915189
:101FB0009353529296565797559594549C5C5D9DB9
:101FC0005F9F9E5E5A9A9B5B9959589888484989A9
:101FD0004B8B8A4A4E8E8F4F8D4D4C8C4484854559
:101FE0008747468682424383418180403031323385
:101FF000343536373839414243444546403058003D
:10200000303132333435363738396162636465666E
:1020100040307800040000080000000000000002CA
:10202000000100001000000048200008000000200F
:102030005C00000028010008A42000085C000020CB
:10204000DC0C00004401000800A24A04000000006B
:102050000000000001020304060708090000000058
:10206000010203040102030406070809020406082A
:102070000000000000000000000000000000000060
:102080000000000000000000000000000000000050
:10209000000000000000000000000102000000003D
:0420A000000000003C
:040000050800019955
:00000001FF
